{
  "_format": "hh-sol-artifact-1",
  "contractName": "WavePortal",
  "sourceName": "contracts/WavePortal.sol",
  "abi": [
    {
      "inputs": [],
      "stateMutability": "payable",
      "type": "constructor"
    },
    {
      "anonymous": false,
      "inputs": [
        {
          "indexed": true,
          "internalType": "address",
          "name": "previousOwner",
          "type": "address"
        },
        {
          "indexed": true,
          "internalType": "address",
          "name": "newOwner",
          "type": "address"
        }
      ],
      "name": "OwnershipTransferred",
      "type": "event"
    },
    {
      "anonymous": false,
      "inputs": [
        {
          "indexed": false,
          "internalType": "address",
          "name": "waver",
          "type": "address"
        },
        {
          "indexed": false,
          "internalType": "string",
          "name": "message",
          "type": "string"
        }
      ],
      "name": "WaveEvent",
      "type": "event"
    },
    {
      "anonymous": false,
      "inputs": [
        {
          "indexed": false,
          "internalType": "address",
          "name": "waver",
          "type": "address"
        }
      ],
      "name": "WinPrize",
      "type": "event"
    },
    {
      "inputs": [],
      "name": "getTotalWaves",
      "outputs": [
        {
          "internalType": "uint256",
          "name": "waves",
          "type": "uint256"
        }
      ],
      "stateMutability": "view",
      "type": "function"
    },
    {
      "inputs": [],
      "name": "getWavers",
      "outputs": [
        {
          "components": [
            {
              "internalType": "address",
              "name": "waver",
              "type": "address"
            },
            {
              "internalType": "string",
              "name": "message",
              "type": "string"
            },
            {
              "internalType": "uint256",
              "name": "timestamp",
              "type": "uint256"
            }
          ],
          "internalType": "struct WavePortal.Waver[]",
          "name": "",
          "type": "tuple[]"
        }
      ],
      "stateMutability": "view",
      "type": "function"
    },
    {
      "inputs": [],
      "name": "owner",
      "outputs": [
        {
          "internalType": "address",
          "name": "",
          "type": "address"
        }
      ],
      "stateMutability": "view",
      "type": "function"
    },
    {
      "inputs": [],
      "name": "renounceOwnership",
      "outputs": [],
      "stateMutability": "nonpayable",
      "type": "function"
    },
    {
      "inputs": [
        {
          "internalType": "address",
          "name": "newOwner",
          "type": "address"
        }
      ],
      "name": "transferOwnership",
      "outputs": [],
      "stateMutability": "nonpayable",
      "type": "function"
    },
    {
      "inputs": [
        {
          "internalType": "string",
          "name": "_message",
          "type": "string"
        }
      ],
      "name": "wave",
      "outputs": [],
      "stateMutability": "nonpayable",
      "type": "function"
    },
    {
      "inputs": [],
      "name": "withdraw",
      "outputs": [],
      "stateMutability": "payable",
      "type": "function"
    }
  ],
  "bytecode": "0x608060405262000024620000186200004c60201b60201c565b6200005460201b60201c565b6064444262000034919062000118565b6200004091906200017f565b60018190555062000215565b600033905090565b60008060009054906101000a900473ffffffffffffffffffffffffffffffffffffffff169050816000806101000a81548173ffffffffffffffffffffffffffffffffffffffff021916908373ffffffffffffffffffffffffffffffffffffffff1602179055508173ffffffffffffffffffffffffffffffffffffffff168173ffffffffffffffffffffffffffffffffffffffff167f8be0079c531659141344cd1fd0a4f28419497f9722a3daafe3b4186f6b6457e060405160405180910390a35050565b6000620001258262000175565b9150620001328362000175565b9250827fffffffffffffffffffffffffffffffffffffffffffffffffffffffffffffffff038211156200016a5762000169620001b7565b5b828201905092915050565b6000819050919050565b60006200018c8262000175565b9150620001998362000175565b925082620001ac57620001ab620001e6565b5b828206905092915050565b7f4e487b7100000000000000000000000000000000000000000000000000000000600052601160045260246000fd5b7f4e487b7100000000000000000000000000000000000000000000000000000000600052601260045260246000fd5b61128180620002256000396000f3fe6080604052600436106100705760003560e01c8063715018a61161004e578063715018a6146100d35780638da5cb5b146100ea5780639a2cdc0814610115578063f2fde38b1461014057610070565b80633ccfd60b14610075578063449d46c01461007f578063635f29f8146100a8575b600080fd5b61007d610169565b005b34801561008b57600080fd5b506100a660048036038101906100a19190610ad7565b610294565b005b3480156100b457600080fd5b506100bd610497565b6040516100ca9190610dae565b60405180910390f35b3480156100df57600080fd5b506100e86105e8565b005b3480156100f657600080fd5b506100ff610670565b60405161010c9190610d63565b60405180910390f35b34801561012157600080fd5b5061012a610699565b6040516101379190610e50565b60405180910390f35b34801561014c57600080fd5b5061016760048036038101906101629190610aae565b6106a3565b005b61017161079b565b73ffffffffffffffffffffffffffffffffffffffff1661018f610670565b73ffffffffffffffffffffffffffffffffffffffff16146101e5576040517f08c379a00000000000000000000000000000000000000000000000000000000081526004016101dc90610df0565b60405180910390fd5b60003373ffffffffffffffffffffffffffffffffffffffff164760405161020b90610d4e565b60006040518083038185875af1925050503d8060008114610248576040519150601f19603f3d011682016040523d82523d6000602084013e61024d565b606091505b5050905080610291576040517f08c379a000000000000000000000000000000000000000000000000000000000815260040161028890610e10565b60405180910390fd5b50565b42610384600460003373ffffffffffffffffffffffffffffffffffffffff1673ffffffffffffffffffffffffffffffffffffffff168152602001908152602001600020546102e29190610f32565b10610322576040517f08c379a000000000000000000000000000000000000000000000000000000000815260040161031990610e30565b60405180910390fd5b6001600260008282546103359190610f32565b92505081905550600060405180606001604052803373ffffffffffffffffffffffffffffffffffffffff168152602001838152602001428152509050600381908060018154018082558091505060019003906000526020600020906003020160009091909190915060008201518160000160006101000a81548173ffffffffffffffffffffffffffffffffffffffff021916908373ffffffffffffffffffffffffffffffffffffffff160217905550602082015181600101908051906020019061040092919061098e565b50604082015181600201555050610416336107a3565b42600460003373ffffffffffffffffffffffffffffffffffffffff1673ffffffffffffffffffffffffffffffffffffffff168152602001908152602001600020819055507f6ddb334a2595785d0c54fa2d58155595249da492d2e217043fec3636bea9c514338360405161048b929190610d7e565b60405180910390a15050565b60606003805480602002602001604051908101604052809291908181526020016000905b828210156105df57838290600052602060002090600302016040518060600160405290816000820160009054906101000a900473ffffffffffffffffffffffffffffffffffffffff1673ffffffffffffffffffffffffffffffffffffffff1673ffffffffffffffffffffffffffffffffffffffff16815260200160018201805461054490611006565b80601f016020809104026020016040519081016040528092919081815260200182805461057090611006565b80156105bd5780601f10610592576101008083540402835291602001916105bd565b820191906000526020600020905b8154815290600101906020018083116105a057829003601f168201915b50505050508152602001600282015481525050815260200190600101906104bb565b50505050905090565b6105f061079b565b73ffffffffffffffffffffffffffffffffffffffff1661060e610670565b73ffffffffffffffffffffffffffffffffffffffff1614610664576040517f08c379a000000000000000000000000000000000000000000000000000000000815260040161065b90610df0565b60405180910390fd5b61066e60006108ca565b565b60008060009054906101000a900473ffffffffffffffffffffffffffffffffffffffff16905090565b6000600254905090565b6106ab61079b565b73ffffffffffffffffffffffffffffffffffffffff166106c9610670565b73ffffffffffffffffffffffffffffffffffffffff161461071f576040517f08c379a000000000000000000000000000000000000000000000000000000000815260040161071690610df0565b60405180910390fd5b600073ffffffffffffffffffffffffffffffffffffffff168173ffffffffffffffffffffffffffffffffffffffff16141561078f576040517f08c379a000000000000000000000000000000000000000000000000000000000815260040161078690610dd0565b60405180910390fd5b610798816108ca565b50565b600033905090565b600066038d7ea4c6800090504781116108c657606460015444426107c79190610f32565b6107d19190610f32565b6107db9190611069565b600181905550602160015410156108c55760008273ffffffffffffffffffffffffffffffffffffffff168260405161081290610d4e565b60006040518083038185875af1925050503d806000811461084f576040519150601f19603f3d011682016040523d82523d6000602084013e610854565b606091505b505090508061088c577f4e487b7100000000000000000000000000000000000000000000000000000000600052600160045260246000fd5b7fc251f81de1bc12bdb65b1f72eb235ce2dfd69deb91c99d44162ae6d428b7f2f5336040516108bb9190610d63565b60405180910390a1505b5b5050565b60008060009054906101000a900473ffffffffffffffffffffffffffffffffffffffff169050816000806101000a81548173ffffffffffffffffffffffffffffffffffffffff021916908373ffffffffffffffffffffffffffffffffffffffff1602179055508173ffffffffffffffffffffffffffffffffffffffff168173ffffffffffffffffffffffffffffffffffffffff167f8be0079c531659141344cd1fd0a4f28419497f9722a3daafe3b4186f6b6457e060405160405180910390a35050565b82805461099a90611006565b90600052602060002090601f0160209004810192826109bc5760008555610a03565b82601f106109d557805160ff1916838001178555610a03565b82800160010185558215610a03579182015b82811115610a025782518255916020019190600101906109e7565b5b509050610a109190610a14565b5090565b5b80821115610a2d576000816000905550600101610a15565b5090565b6000610a44610a3f84610e90565b610e6b565b905082815260208101848484011115610a5c57600080fd5b610a67848285610fc4565b509392505050565b600081359050610a7e81611234565b92915050565b600082601f830112610a9557600080fd5b8135610aa5848260208601610a31565b91505092915050565b600060208284031215610ac057600080fd5b6000610ace84828501610a6f565b91505092915050565b600060208284031215610ae957600080fd5b600082013567ffffffffffffffff811115610b0357600080fd5b610b0f84828501610a84565b91505092915050565b6000610b248383610ce0565b905092915050565b610b3581610f88565b82525050565b610b4481610f88565b82525050565b6000610b5582610ed1565b610b5f8185610ef4565b935083602082028501610b7185610ec1565b8060005b85811015610bad5784840389528151610b8e8582610b18565b9450610b9983610ee7565b925060208a01995050600181019050610b75565b50829750879550505050505092915050565b6000610bca82610edc565b610bd48185610f10565b9350610be4818560208601610fd3565b610bed81611156565b840191505092915050565b6000610c0382610edc565b610c0d8185610f21565b9350610c1d818560208601610fd3565b610c2681611156565b840191505092915050565b6000610c3e602683610f21565b9150610c4982611167565b604082019050919050565b6000610c61602083610f21565b9150610c6c826111b6565b602082019050919050565b6000610c84601783610f21565b9150610c8f826111df565b602082019050919050565b6000610ca7600083610f05565b9150610cb282611208565b600082019050919050565b6000610cca600883610f21565b9150610cd58261120b565b602082019050919050565b6000606083016000830151610cf86000860182610b2c565b5060208301518482036020860152610d108282610bbf565b9150506040830151610d256040860182610d30565b508091505092915050565b610d3981610fba565b82525050565b610d4881610fba565b82525050565b6000610d5982610c9a565b9150819050919050565b6000602082019050610d786000830184610b3b565b92915050565b6000604082019050610d936000830185610b3b565b8181036020830152610da58184610bf8565b90509392505050565b60006020820190508181036000830152610dc88184610b4a565b905092915050565b60006020820190508181036000830152610de981610c31565b9050919050565b60006020820190508181036000830152610e0981610c54565b9050919050565b60006020820190508181036000830152610e2981610c77565b9050919050565b60006020820190508181036000830152610e4981610cbd565b9050919050565b6000602082019050610e656000830184610d3f565b92915050565b6000610e75610e86565b9050610e818282611038565b919050565b6000604051905090565b600067ffffffffffffffff821115610eab57610eaa611127565b5b610eb482611156565b9050602081019050919050565b6000819050602082019050919050565b600081519050919050565b600081519050919050565b6000602082019050919050565b600082825260208201905092915050565b600081905092915050565b600082825260208201905092915050565b600082825260208201905092915050565b6000610f3d82610fba565b9150610f4883610fba565b9250827fffffffffffffffffffffffffffffffffffffffffffffffffffffffffffffffff03821115610f7d57610f7c61109a565b5b828201905092915050565b6000610f9382610f9a565b9050919050565b600073ffffffffffffffffffffffffffffffffffffffff82169050919050565b6000819050919050565b82818337600083830152505050565b60005b83811015610ff1578082015181840152602081019050610fd6565b83811115611000576000848401525b50505050565b6000600282049050600182168061101e57607f821691505b60208210811415611032576110316110f8565b5b50919050565b61104182611156565b810181811067ffffffffffffffff821117156110605761105f611127565b5b80604052505050565b600061107482610fba565b915061107f83610fba565b92508261108f5761108e6110c9565b5b828206905092915050565b7f4e487b7100000000000000000000000000000000000000000000000000000000600052601160045260246000fd5b7f4e487b7100000000000000000000000000000000000000000000000000000000600052601260045260246000fd5b7f4e487b7100000000000000000000000000000000000000000000000000000000600052602260045260246000fd5b7f4e487b7100000000000000000000000000000000000000000000000000000000600052604160045260246000fd5b6000601f19601f8301169050919050565b7f4f776e61626c653a206e6577206f776e657220697320746865207a65726f206160008201527f6464726573730000000000000000000000000000000000000000000000000000602082015250565b7f4f776e61626c653a2063616c6c6572206973206e6f7420746865206f776e6572600082015250565b7f436f756c646e27742077697468647261772066756e6473000000000000000000600082015250565b50565b7f576169742031356d000000000000000000000000000000000000000000000000600082015250565b61123d81610f88565b811461124857600080fd5b5056fea264697066735822122095e0afcb8ded9aebece0e8c956b84f53f029bacf514f0de31d60f935ba3dacd864736f6c63430008040033",
  "linkReferences": {},
  "deployedLinkReferences": {}
}